:100000000C9496000C94EF040C94C8040C94A10476
:100010000C947A040C94BE000C94BE000C9453040F
:100020000C94BE000C9416050C94B50A0C94270B86
:100030000C94BE000C94BE000C94BE000C94BE0048
:100040000C94BE000C94BE000C94BE000C94BE0038
:100050000C94BE000C94BE000C94BE000C940904D9
:100060000C94BE000C94BE000C94BE000C94BE0018
:100070000C94BE000C94BE000C94BE000C94BE0008
:100080000C94BE000C94BE000C94BE000C94BE00F8
:100090000C9462070C94BE000C94BE000C94BE003D
:1000A0000C94BE000C9467050C94BE00080B000273
:1000B0000202010009040000010202000005240000
:1000C0001001052401010104240206052406000193
:1000D0000705810310004009040100020A00000026
:1000E00007050202400000070583024000000403E8
:1000F000090412010002EF020140FB1F002300016E
:1001000001020301506F6C6F6C7520436F72706F4A
:10011000726174696F6E00506F6C6F6C7520412D49
:1001200053746172203332553400680F11241FBE9E
:10013000CFEFDAE0DEBFCDBF11E0A0E0B1E0EEEC42
:10014000F4E202C005900D92AA37B107D9F722E078
:10015000AAE7B1E001C01D92AB38B207E1F710E0A9
:10016000C6E9D0E004C02197FE010E943310C539D2
:10017000D107C9F70E94250E0C9465120C9400005B
:100180000895CF92DF92EF92FF920F931F93CF9338
:10019000DF936C017A018B01C0E0D0E0CE15DF0562
:1001A00081F0D8016D918D01D601ED91FC91019006
:1001B000F081E02DC6010995892B11F02196EECF33
:1001C0007E01C701DF91CF911F910F91FF90EF90BA
:1001D000DF90CF9008958091F001E091F101F091CE
:1001E000F201882311F0849101C080819FEB980F68
:1001F0009A3110F4805E0895803269F42091F10103
:100200003091F201A9014F5F5F4F5093F20140938B
:10021000F101232B01F708951F93CF93DF930E94E1
:10022000EB00C0E0D0E01AE090ED980F9A30B8F4FF
:100230001C9F90011D9F300D1124E901C80FD11D95
:1002400087FDDA95E0978091F1019091F201019696
:100250009093F2018093F1010E94EB00E5CFCE0173
:10026000DF91CF911F9108952F923F924F925F920D
:100270006F927F928F929F92AF92BF92CF92DF92B6
:10028000EF92FF920F931F93CF93DF93CDB7DEB71B
:1002900027970FB6F894DEBF0FBECDBF9F838E8326
:1002A0001B014D838091ED0181111BC081E0809382
:1002B000ED01109272001092C00094E09093C10082
:1002C00099E09093C2008093C30083E08093BF00C5
:1002D00088EE8093D1001092BF001092D200579AFE
:1002E0007894109209012E813F8137FF05C03F7736
:1002F0003F832E830AE001C001E088E2089F802D41
:10030000112490E04E815F814817590708F4C2C05C
:10031000013039F44131574220F020E137E23F8388
:100320002E83402E512C612C712C8E819F819695AD
:1003300087959C0140E050E029833A834B835C839E
:100340004E815F814A01A12CB12CA301920160E092
:1003500072E18AE790E00E94A80F29813A814B81DF
:100360005C81620F731F841F951FA50194010E9479
:10037000FA0F69017A01EE24FF2410E01F5FC11417
:1003800034E0D306E104F10408F120E032E14AE769
:1003900050E0012E04C055954795379527950A944E
:1003A000D2F7C301B2010E94A80F29813A814B8183
:1003B0005C81620F731F841F951FA50194010E9429
:1003C000FA0F69017A01EE24FF24D8CF0A3049F4EC
:1003D0008E819F8105966AE070E00E94C40F7F8342
:1003E0006E834E815F81483E83E0580759F091014A
:1003F000DA010E94191028EE33E040E050E00E943C
:10040000FA0F1901109272008091C100807F182BA1
:100410001093C100BB27AF2D9E2D8D2D8093BF0063
:10042000C092D1002D81203108F02FE080E190E0D2
:10043000821B910904C0F694E794D794C7948A95D7
:10044000D2F78D2D99278093BF00C092D2003092B1
:10045000EF012092EE0189B38FEF89BB84E0809396
:10046000720027960FB6F894DEBF0FBECDBFDF91A6
:10047000CF911F910F91FF90EF90DF90CF90BF90A1
:10048000AF909F908F907F906F905F904F903F9034
:100490002F9008959F838E8344CF85ED8093BC0079
:1004A0008091BC0084FDFCCF1092C401089540915E
:1004B000A001262F30E0240F311D21323105DCF45C
:1004C0002091C4012430C9F4FC0180E090E086173B
:1004D00058F43091A0012191DC01A058BE4FA30F28
:1004E000B11D2C930196F3CF8091A001680F60930A
:1004F000A00180E0089581E0089582E008950895C4
:100500008FEF9FEF08958FEF9FEF089580917F0108
:1005100090E09195819591090895CF93DF93CB0158
:10052000EA01642F0E945702CE01DF91CF91089516
:10053000CF93DF931F92CDB7DEB7698361E0CE0121
:1005400001960E94570281E090E00F90DF91CF91D9
:1005500008955B98539A0895089580E090E0089577
:10056000FF920F931F93CF93DF93EC01162F042F6D
:10057000F22E8C8181114CC081E08C83E881F9815D
:100580000084F185E02DCE01099521E040E063E093
:10059000CE010E94B0028FE991E40197F1F700C00B
:1005A000000021E040E063E0CE010E94B00287E558
:1005B00092E00197F1F700C0000021E040E063E025
:1005C000CE010E94B00221E040E062E0CE010E9434
:1005D000B00268E2CE010E94450368E0CE010E94AD
:1005E00045031D8261E0CE010E9445038FE39FE138
:1005F0000197F1F700C0000066E0CE010E944503BC
:1006000082E08E836CE0CE010E94450384E08D83FE
:10061000E881F9810284F385E02D2F2D402F612F91
:10062000CE01099595EC9A95F1F70000DF91CF91F5
:100630001F910F91FF900895CF92DF92EF92FF925A
:100640000F931F93CF93DF937C018A01EB016B0122
:10065000C40ED51ECC15DD0539F0699120E041E0CE
:10066000C7010E94B002F6CFC801DF91CF911F9160
:100670000F91FF90EF90DF90CF90089520E041E040
:100680000E94B00281E090E0089520E040E00C94E8
:10069000B0020E94FF100F931F93CF93DF93CDB74B
:1006A000DEB727970FB6F894DEBF0FBECDBF6E83BF
:1006B0003091E2003F831092E2001091E900109225
:1006C000E9000091F0001092F00030E05A9931609A
:1006D00052993260398330E02B993160239932602E
:1006E0003A8330E028993160209932603B8330E0D2
:1006F000479931603F9932603C8330E05D993160C9
:10070000559932603D83442311F05A9A01C05A989A
:10071000529A211105C08E8182958F700E94290AFC
:100720008E818F700E94290A2D8121FB0EF0559831
:1007300020FB0EF05D980EF45D9A21FB0EF4559AA5
:100740003C8131FB0EF03F9830FB0EF047980EF4E1
:10075000479A31FB0EF43F9A2B8121FB0EF0209833
:1007600020FB0EF028980EF4289A21FB0EF4209A14
:100770003A8131FB0EF0239830FB0EF02B980EF4EB
:100780002B9A31FB0EF4239A298121FB0EF052980B
:1007900020FB0EF05A980EF45A9A21FB0EF4529A4E
:1007A0001092E9000093F0001093E9003F8130932C
:1007B000E20027960FB6F894DEBF0FBECDBFDF91E3
:1007C000CF911F910F9108953FB7F8948091FD014B
:1007D0009091FE01A091FF01B091000226B5A89B67
:1007E00005C02F3F19F00196A11DB11D3FBFBA2FC3
:1007F000A92F982F8827820F911DA11DB11DBC0123
:10080000CD0142E0660F771F881F991F4A95D1F7E7
:1008100008951F920F920FB60F9211242F933F93BA
:100820008F939F93AF93BF938091F9019091FA01B9
:10083000A091FB01B091FC013091F80123E0230F5E
:100840002D3720F40196A11DB11D05C026E8230F08
:100850000296A11DB11D2093F8018093F901909398
:10086000FA01A093FB01B093FC018091FD019091EE
:10087000FE01A091FF01B09100020196A11DB11DE2
:100880008093FD019093FE01A093FF01B0930002BD
:10089000BF91AF919F918F913F912F910F900FBE7C
:1008A0000F901F9018951F920F920FB60F92112460
:1008B0002F933F934F935F936F937F938F939F9368
:1008C000AF93BF93EF93FF93E0911201F091130167
:1008D0000995FF91EF91BF91AF919F918F917F917A
:1008E0006F915F914F913F912F910F900FBE0F909D
:1008F0001F9018951F920F920FB60F9211242F93ED
:100900003F934F935F936F937F938F939F93AF9397
:10091000BF93EF93FF93E0911001F09111010995BE
:10092000FF91EF91BF91AF919F918F917F916F91C7
:100930005F914F913F912F910F900FBE0F901F909D
:1009400018951F920F920FB60F9211242F933F9379
:100950004F935F936F937F938F939F93AF93BF93C7
:10096000EF93FF93E0910E01F0910F010995FF9134
:10097000EF91BF91AF919F918F917F916F915F9117
:100980004F913F912F910F900FBE0F901F90189590
:100990001F920F920FB60F9211242F933F934F93F4
:1009A0005F936F937F938F939F93AF93BF93EF93D7
:1009B000FF93E0910C01F0910D010995FF91EF91EA
:1009C000BF91AF919F918F917F916F915F914F9167
:1009D0003F912F910F900FBE0F901F9018951F926F
:1009E0000F920FB60F9211242F933F934F935F9363
:1009F0006F937F938F939F93AF93BF93EF93FF93E7
:100A0000E0910A01F0910B010995FF91EF91BF91DF
:100A1000AF919F918F917F916F915F914F913F9196
:100A20002F910F900FBE0F901F9018951F920F924D
:100A30000FB60F9211242F933F934F935F936F93B1
:100A40007F938F939F938CB190E095958795959523
:100A50008795482F417023B130E054E035952795B4
:100A60005A95E1F78227932781702091F7015091E1
:100A7000F6016091F4017091F501982F9227292FCA
:100A800030E0952F9427291B3109260F371F30930B
:100A9000F5012093F4012091F6019091F70182175E
:100AA00029F0941719F091E09093F3018093F601E7
:100AB0004093F7019F918F917F916F915F914F913B
:100AC0003F912F910F900FBE0F901F9018951F927E
:100AD0000F920FB60F9211246F927F928F929F9276
:100AE000AF92BF92CF92DF92EF92FF920F931F933C
:100AF0002F933F934F935F936F937F938F939F9326
:100B0000AF93BF93CF93DF93EF93FF938091EE0169
:100B10009091EF019C01215031093093EF01209316
:100B2000EE01892B09F0AFC1109272007894809188
:100B3000C100807F84608093C10083E08093BF0008
:100B400088EE8093D1001092BF001092D20081E015
:100B5000809309018091F1019091F201892B09F4B0
:100B600092C18091EC0181118EC190900801809119
:100B7000EB01882321F08091EA0181117AC166247A
:100B8000639480ECA82E8DE5B82E9AE0792E24E0AF
:100B9000822E30EDC32E37E0D32E44E0E42EF12C2C
:100BA00004EF11E0CFE0D0E00E94EB002091F101D2
:100BB0003091F2012F5F3F4F3093F2012093F1010A
:100BC000853609F45FC07CF5813609F49FC024F5B1
:100BD0008C3309F452C08E3309F44DC0813209F0D0
:100BE00090C080920801D0920501C0920401F09259
:100BF0000701E09206011093030100930201D093D4
:100C00000101C09300011092EB01909008018091C6
:100C1000020190910301C8CF833609F47AC07CF5B4
:100C2000E12C2BE078C08D36B1F16CF4873681F180
:100C300064F18C3609F065C00E940C0190930701A5
:100C4000809306014FC08237D9F14CF48F3609F0FA
:100C500058C00E940C01982E80930801A5CF8437BC
:100C600091F1863709F04DC00E940C01909301016B
:100C70008093000199CF939497CF9A9495CFE12CCC
:100C800022E049C0E12C24E046C0E12C25E043C02D
:100C9000E12C27E040C00E94EB008C3619F4109242
:100CA000EB0104C06092EB011092EA018091F10126
:100CB0009091F20101969093F2018093F10174CF2B
:100CC000EE24E39427C00E940C01BC01C5010E94E0
:100CD000C40F769EC001779E900D1124909305015C
:100CE00080930401809104019091050160910601B7
:100CF000709107010E94C40F709303016093020179
:100D000053CF1092F2011092F101BDC0E12C29E005
:100D100002C0E12C20E0F22E8CE0989EF00C112411
:100D20000E94EB00982F977F933259F48091F10144
:100D30009091F20101969093F2018093F101F39466
:100D4000EFCF8D3269F48091F1019091F20101961B
:100D50009093F2018093F101FA940E94EB00F1CF9D
:100D6000C0910201D09103018153883058F4C091A1
:100D70000401D09105010E940C01BC01CE010E942A
:100D8000C40FEB018E01169507950E94EB008E3281
:100D900061F48091F1019091F20101969093F2013A
:100DA0008093F101C00FD11FEECF8091EB0188231A
:100DB00049F0CE01969587958093EA018091EA01EA
:100DC000C81BD1090091000110910101E11005C07B
:100DD0009FEFF91611F0011105C040E0BE0188EE49
:100DE00093E044C080E18F1530F420EF2F0D2036C2
:100DF00018F02FE501C020E0822F6CE00E94B80FB0
:100E000030E09CE0899F2019310911242C303105F4
:100E100040F4220F331FF901EA5DFE4F208131813A
:100E200002C020E030E0873081F0082E02C0220F9F
:100E3000331F0A94E2F7823028F0C90105966AE070
:100E400070E00CC0C90190580CC0C90156E0880F71
:100E5000991F5A95E1F7029665E070E00E94C40F71
:100E6000CB01402F003108F04FE0BE010E94340159
:100E70000AC06091EA0170E040E088EE93E00E94D1
:100E800034011092EA01FF91EF91DF91CF91BF9170
:100E9000AF919F918F917F916F915F914F913F9112
:100EA0002F911F910F91FF90EF90DF90CF90BF9007
:100EB000AF909F908F907F906F900F900FBE0F908C
:100EC0001F9018951F920F920FB60F9211242F9317
:100ED0003F934F935F936F937F938F939F93AF93C2
:100EE000BF93EF93FF938091B900887F803609F418
:100EF0009CC068F5883209F45BC090F4803109F435
:100F000054C038F4882309F4F2C0883009F44DC085
:100F1000F2C0883109F44CC0803209F45DC0EBC0E6
:100F2000803409F468C048F4803309F455C088332C
:100F300009F0E1C08093C301D4C0803509F44FC0EB
:100F4000883509F45DC0883409F0D5C0D2C088392D
:100F500009F4C3C0A8F4883709F467C038F48836A8
:100F600009F463C0803709F460C0C5C0883809F44B
:100F7000B4C0803909F45FC0803809F0BCC05BC0E0
:100F8000803B09F484C038F4803A09F466C0883A9A
:100F900009F47DC0B0C0803C09F4A3C0883C09F4CA
:100FA000A0C0883B09F486C0A6C08091E90110C0AA
:100FB0009091E8018091E701981770F5E091E801C0
:100FC00081E08E0F8093E801F0E0E953FE4F8081CD
:100FD0008093BB0085EC82C08093C3018AC0E091FE
:100FE000E80181E08E0F8093E8018091BB00F0E082
:100FF000E953FE4F80839091E8018091E7016AC038
:10100000E091E80181E08E0F8093E8018091BB00C0
:10101000F0E0E953FE4F80838091C601811169C0E1
:1010200081E08093C50184EA5DC083E08093C401C0
:101030001092C201CFCF8091C201803208F04DC022
:10104000E091C20181E08E0F8093C2018091BB00CC
:10105000F0E0EE55FE4F8083BDCF85EC8093BC0061
:101060001092C4018091C201803230F4E091C2013B
:10107000F0E0EE55FE4F10826091C20170E082EA0E
:1010800091E0E0E0F0E009951092C20134C084E004
:101090008093C4011092A1011092A001E0E0F0E061
:1010A00009958091A001811105C081E08093A00184
:1010B00010928001E091A10181E08E0F8093A10147
:1010C000F0E0E058FE4F80818093BB009091A10139
:1010D0008091A001981708F47DCF85E88093BC002B
:1010E0000AC085EC8093BC001092C40104C0109229
:1010F000C3010E944D02FF91EF91BF91AF919F916B
:101100008F917F916F915F914F913F912F910F90B0
:101110000FBE0F901F90189520910302211103C05C
:101120008FEF9FEF08955FB7F89422E02093E900D6
:101130002091F20030E01216130614F421E030E0A2
:10114000422FFC0184E6415038F0289880932A020F
:101150009091F1009193F7CF2115310521F0809105
:10116000F200882319F05FBFC90108958BE68093D0
:10117000E800F9CF2FB7F89483E08093E9009091CD
:10118000E800892F807295FF04C09091F20080E4FE
:10119000891B2FBF08958091220281110DC082E02A
:1011A00080931E0284E080931F021092210210920D
:1011B000200281E0809322028EE192E00895CF9395
:1011C000DF931F92CDB7DEB76983DC01ED91FC910F
:1011D0000280F381E02D41E050E0BE016F5F7F4F60
:1011E00009950F90DF91CF91089583E08093E900F6
:1011F0008091F200882319F08AE38093E800089533
:101200000E94BA0890E00895CF93DF931F92CDB764
:10121000DEB7FC018485958597FD05C02FEF3FEF74
:10122000358724870BC0CE0101960E948C08019758
:1012300019F4898190E002C08FEF9FEF0F90DF914A
:10124000CF9108950F931F93CF93DF931F92CDB744
:10125000DEB78C01FC018485958597FF0EC0CE0119
:1012600001960E948C08019719F4898190E002C0D0
:101270008FEF9FEFF80195878487F8018485958526
:101280000F90DF91CF911F910F910895FC018485FC
:10129000958597FD0BC09FB7F89482E08093E90095
:1012A0008091F2009FBF90E0019608959FB7F89457
:1012B00082E08093E9008091F2009FBF90E0089562
:1012C00040911A0250911B0220911802309119028C
:1012D00042175307B4F49091E8009570E1F39091B0
:1012E000E80092FD19C08093F10080911A0290915C
:1012F0001B0201968F739927892B19F48EEF809327
:10130000E80080911A0290911B02019690931B02B3
:1013100080931A0281E0089580E00895DF92EF92B1
:10132000FF920F931F93CF93DF93D82EF92EE42EC5
:10133000062F10E0C8010196880F0E94600983E023
:101340000E946009CD2DDF2D0C0F1D1FC017D10786
:1013500089F0E7FE03C0FE01849101C088810E94EC
:101360006009F82E80E00E9460098F21219681118A
:10137000EDCF01C081E0DF91CF911F910F91FF90E0
:10138000EF90DF900895DF92EF92FF920F931F93FB
:10139000CF93DF93D82E8A017B01E40EF51EEB017B
:1013A000CE15DF0571F0D7FE03C0FE01849101C0A8
:1013B00088810E94600921968111F2CF8FEF9FEF03
:1013C00001C0C801DF91CF911F910F91FF90EF9065
:1013D000DF9008950F931F93CF93DF931F92CDB7A4
:1013E000DEB782E0898342E450E06CEA70E080E896
:1013F0000E94C3090E94CB08DC0112960D911C913A
:1014000013970115110589F0D801ED91FC91028027
:10141000F381E02DBE016F5F7F4FC801099597FDF5
:1014200004C0F80100851185ECCF89810F90DF9110
:10143000CF911F910F910895615030F02091F100EC
:10144000FC0120830196F8CF289884E680932A0235
:10145000089580FF02C02B9A01C02B98239A81FF28
:1014600002C0289A01C02898209A82FF02C0479A99
:1014700001C047983F9A83FF02C05D9A01C05D9802
:10148000559A5B9A539A85E08A95F1F700005B982C
:10149000539A85E08A95F1F700000895409106027D
:1014A000209104023091050290E0491749F02D5F28
:1014B0003F4FF90133975081581721F09F5FF5CFC7
:1014C0008FEF0895892F08958F929F92AF92BF92C8
:1014D0000F931F93CF93DF93CDB7DEB7A1970FB6CE
:1014E000F894DEBF0FBECDBF19A2423008F44AE027
:1014F0008E010F5D1F4F842E912CA12CB12CA501C4
:1015000094010E94D80FE62FB901CA0101501109B8
:10151000EA3014F4E05D01C0E95CD801EC93232BC0
:10152000242B252B61F70115110571F0F8010190AD
:101530000020E9F73197AF01401B510BB80181E161
:1015400092E00E941C0302C080E090E0A1960FB6DA
:10155000F894DEBF0FBECDBFDF91CF911F910F91E9
:10156000BF90AF909F908F9008951F920F920FB6EB
:101570000F9211248F939F938091E1009091E1004D
:10158000937F9093E10083FF0FC01092E90091E0F8
:101590009093EB001092EC0092E39093ED00109288
:1015A000030298E09093F00082FF20C093E09093B4
:1015B000E9009091F200992319F09AE39093E800E2
:1015C00090911D02992339F090911D0291509093B2
:1015D0001D02992389F190912A02992339F0909163
:1015E0002A02915090932A02992341F184FF10C05E
:1015F0008091E2008E7E81608093E2008091E10024
:101600008F7E8093E100809102028E7E806111C006
:1016100080FF16C08091E2008E7E80618093E200A0
:101620008091E1008E7E8093E100809102028E7EA7
:1016300081608093020204C05D9ACDCF289AD6CFF4
:101640009F918F910F900FBE0F901F9018951F9232
:101650000F920FB60F921124CF92DF92EF92FF926A
:101660000F931F932F933F934F935F936F937F93AA
:101670008F939F93AF93BF93EF93FF93CF93DF939A
:10168000CDB7DEB76C97DEBFCDBF1092E900809179
:10169000E80083FFFBC168E0CE0145960E941C0A6A
:1016A00082EF8093E8008D8987FF05C09091E80064
:1016B00090FFFCCF03C09EEF9093E800982F9076A8
:1016C00009F0C6C09E894F89588D2F89F88C9111D9
:1016D0000CC0803829F4809101028093F10002C08F
:1016E0001092F1001092F10045C1913051F4811136
:1016F00041C14130510509F03DC1809101028D7F0A
:101700000BC0933061F4811135C14130510509F0AE
:1017100031C1809101028260809301022BC195301A
:1017200049F48091E80080FFFCCF822F806880938D
:10173000E30020C1963009F05EC00B8D1C8D22E0C5
:101740001092E90010921B0210921A02F21232C09B
:1017500010921902109218020E94EA0999E0BE0143
:101760006F5F7F4FDB01E92F1D92EA95E9F79983BF
:10177000FA8291E09E8390EA98879AEF9987209168
:101780001A0230911B02275F3F4F3C832B838D83CE
:101790001092E90010921B0210921A021093190283
:1017A0000093180249E050E080E00E94C3090E94C3
:1017B000EA09E0C010931902009318020E94CB08B6
:1017C000DC0112960D911C9113970115110509F476
:1017D000BBC0D801ED91FC910480F581E02DBE01E4
:1017E0006B5E7F4FC8010995009709F0C7C0F801EB
:1017F00000851185EACF973009F445C1983021F46E
:1018000081E08093F100B6C0993009F0B3C08370D5
:1018100009F039C1EFE3F1E081E031E096E32081A6
:10182000211109C08EE78093EA001092EA008F89A7
:10183000809303029FC08093E9003093EB002191D5
:101840002093EC009093ED008F5F873041F7EACF53
:101850008B8D9C8D1092E90010921B0210921A023F
:101860009093190280931802898D811153C08E893B
:101870009D89913A49F4813209F005C147E050E071
:1018800068E171E080E0BBC0913209F0FCC08332B6
:1018900069F48F89988DA0E0B0E080931401909353
:1018A0001501A0931601B093170164C0803269F44A
:1018B0008091E80082FFFCCF67E088E191E00E9420
:1018C0001C0A8BEF8093E80055C0823209F052C0A9
:1018D0008F8980931F01EEEFFFE7859194918B3FF5
:1018E0009C4D19F0E0E0F8E002C0EEEFFAE08091E4
:1018F000180190911901A0911A01B0911B01803B30
:101900009440A105B10509F09EC080911F0180FFA0
:1019100079C099C00E94CB08FC0102811381011596
:10192000110509F4B0C0D801ED91FC910190F0814E
:10193000E02DBE016B5E7F4FC801099581111AC071
:10194000F80100851185EBCFF1E0FF1609F44EC0D8
:10195000F3E0FF1298C08F89882309F44AC08230CF
:1019600089F440E862E187E191E00E948E098823D2
:1019700009F489C08EEF8093E80088C01816190614
:10198000CCF381C0813029F440E862E184E091E049
:10199000ECCF833009F077C00E94CB08DC011296AF
:1019A000ED90FC9013978E010F5F1F4F6801E114BB
:1019B000F10479F0D701ED91FC910680F781E02DDB
:1019C000B801C7010995080F111DF701E084F184E2
:1019D000EECFD8011C92F60101900020E9F7319773
:1019E000BF016C197D0940E0C601BFCF62EF70E016
:1019F00002C06EEE70E0FB01449150E080E80E946E
:101A0000C309B8CFEE3F2AE0F20751F080819181FF
:101A10008737A7E79A0721F09093FF0A8093FE0A81
:101A200087E797E7918380838091600080931C0211
:101A30009BE088E10FB6F894A895809360000FBEF4
:101A40009093600097CF808191818737974709F005
:101A500091CFA8958091600088618093600080910B
:101A60001C0280936000EE3FBAE0FB0739F08091E2
:101A7000FE0A9091FF0A918380837CCF1092FF0A27
:101A80001092FE0A77CF81E28093EB006C960FB63E
:101A9000F894DEBF0FBECDBFDF91CF91FF91EF91E4
:101AA000BF91AF919F918F917F916F915F914F9176
:101AB0003F912F911F910F91FF90EF90DF90CF906A
:101AC0000F900FBE0F901F9018958F929F92AF921C
:101AD000BF92CF92DF92EF92FF926B017C010E9446
:101AE000E4034B015C01C114D104E104F104F1F001
:101AF0000E94E403DC01CB0188199909AA09BB09FA
:101B0000883E9340A105B10570F321E0C21AD108C7
:101B1000E108F10888EE880E83E0981EA11CB11C34
:101B2000C114D104E104F10419F7DDCFFF90EF9067
:101B3000DF90CF90BF90AF909F908F9008958F923D
:101B40009F92AF92BF92CF92DF92EF92FF920F934C
:101B50001F93CF93DF936C017B018A0180911F015A
:101B6000882309F45CC080910302882309F457C0DC
:101B70008091020280FF05C08091E0008260809326
:101B8000E000E801B12C8AEFA82E93E0892E2AE329
:101B9000922E209711F4BB20D9F10E94BA0881112E
:101BA0000AC0AA94AA20D9F161E070E080E090E038
:101BB0000E94650DEECF282F30E0C217D3070CF43A
:101BC0008C2F9FB7F8948092E9002091E80025FFC0
:101BD0001DC0282F30E0C21BD30BF701815020F02D
:101BE00041914093F100FACFE20EF31EBB2019F0B1
:101BF0009092E8000AC08091E80085FD07C09092AD
:101C0000E800BB24B394209709F0B12C9FBFC1CF4B
:101C10005D9884E680931D021016110644F081E061
:101C200090E0F6019383828380E090E001C0C801D8
:101C3000DF91CF911F910F91FF90EF90DF90CF90A8
:101C4000BF90AF909F908F900895789484B58260F4
:101C500084BD84B5816084BD85B5826085BD85B550
:101C6000816085BD80916E00816080936E001092CE
:101C70008100809181008260809381008091810049
:101C800081608093810080918000816080938000DA
:101C90008091910082608093910080919100816099
:101CA000809391008091900081608093900080915A
:101CB000C10084608093C1008091C10082608093E4
:101CC000C1008091C10081608093C1008091C300F8
:101CD00081608093C3008091C00082608093C000C7
:101CE0008091C20081608093C20080917A008460FC
:101CF00080937A0080917A00826080937A0080914C
:101D00007A00816080937A0080917A008068809365
:101D10007A00109203021092010210920202809146
:101D2000D70081608093D70080EA8093D80089B57E
:101D3000806189BD89B5826089BD09B400FEFDCF8F
:101D400061E070E080E090E00E94650D8091D80035
:101D50008F7C80618093D8008091E000807F8093A9
:101D6000E0008091E1008E7E8093E1008DE0809321
:101D7000E200559A209A8BE08093070269E070E0B8
:101D800080910402909105020E943910FC01009795
:101D900069F0909305028093040283E08093060229
:101DA00084E1808386E1838384E08683C0E0D0E0A1
:101DB00060E881E192E00E94450385EC8A95F1F7A5
:101DC000000084E00E944E0A90910602891758F4A0
:101DD000E0910402F091050293E0899FE00DF11D6E
:101DE0001124628101C060E070E080E090E04AE090
:101DF0000E94640A20E041E060E281E192E00E94FA
:101E0000B00284E10E944E0A90910602891758F4AC
:101E1000E0910402F091050293E0899FE00DF11D2D
:101E20001124618101C060E070E080E090E04AE050
:101E30000E94640A60EC81E192E00E94450385EC17
:101E40008A95F1F7000086E10E944E0A9091060201
:101E5000891758F4E0910402F091050293E0899FFC
:101E6000E00DF11D1124618101C060E070E080E0AF
:101E700090E04AE00E94640A20E041E060E281E1F3
:101E800092E00E94B00286E10E944E0A9091060202
:101E9000891758F4E0910402F091050293E0899FBC
:101EA000E00DF11D1124628101C060E070E080E06E
:101EB00090E04AE00E94640A6AE070E080E090E00E
:101EC0000E94650D209709F473CF0E94000070CF27
:101ED000EBE2F2E01382128288EE93E0A0E0B0E041
:101EE00084839583A683B78329E431E031832083FB
:101EF0002FEF3FEF35872487EBE7F2E01382128262
:101F000084839583A683B7838BE591E09183808357
:101F1000E1E1F2E01382128214828DE691E0918376
:101F20008083E4E0F2E01182108212828FEF8383DB
:101F300015821482168285EA91E09287818782E475
:101F400092E09487838784EA91E09087878308955D
:101F5000DB018F939F930E942810BF91AF91A29FA6
:101F6000800D911DA39F900DB29F900D1124089597
:101F7000991B79E004C0991F961708F0961B881FDB
:101F80007A95C9F780950895AA1BBB1B51E107C03C
:101F9000AA1FBB1FA617B70710F0A61BB70B881FF9
:101FA000991F5A95A9F780959095BC01CD01089588
:101FB000A1E21A2EAA1BBB1BFD010DC0AA1FBB1F4D
:101FC000EE1FFF1FA217B307E407F50720F0A21BBF
:101FD000B30BE40BF50B661F771F881F991F1A942C
:101FE00069F760957095809590959B01AC01BD0156
:101FF000CF010895052E97FB1EF400940E94111046
:1020000057FD07D00E94D80F07FC03D04EF40C9464
:10201000111050954095309521953F4F4F4F5F4F90
:10202000089590958095709561957F4F8F4F9F4F44
:102030000895A29FB001B39FC001A39F700D811DA1
:102040001124911DB29F700D811D1124911D0895C1
:102050000E941910A59F900DB49F900DA49F800D14
:10206000911D11240895EE0FFF1F0590F491E02DAE
:102070000994A0E0B0E0EFE3F0E10C943212EC013F
:10208000009721F4CB010E940D11B4C0FC01E60FB2
:10209000F71F9C0122503109E217F30708F4A8C08A
:1020A000D9010D911C91119706171707B0F0053053
:1020B000110508F49BC0C80104978617970708F418
:1020C00095C002501109061B170B019311936D93D4
:1020D0007C93CF010E94A51189C05B01A01AB10AAF
:1020E0004C01800E911EA0918902B0918A02612C50
:1020F000712CE12CF12C109709F446C08D919C9124
:102100001197A815B905B1F56C0142E0C40ED11CB8
:10211000CA14DB0478F14C018A189B08640142E080
:10212000C40ED11C1296BC9012971396AC91B5E0D8
:10213000CB16D10440F0B282A38391828082D90170
:102140006D937C9309C00E5F1F4F800F911FF901A3
:1021500091838083EB2DFA2FE114F10431F0D70144
:102160001396FC93EE93129741C0F0938A02E0938A
:1021700089023CC06816790608F43C017D0112967C
:102180000D90BC91A02DB7CF8091870290918802CD
:1021900088169906E1F466167706C8F48091200146
:1021A00090912101009741F48DB79EB74091240191
:1021B00050912501841B950BE817F907C8F4F0939B
:1021C0008802E0938702F901718360830FC0CB011D
:1021D0000E940D117C01009759F0A801BE010E94D8
:1021E0000411CE010E94A511C70104C0CE0102C096
:1021F00080E090E0CDB7DEB7EEE00C944E1281E0C7
:1022000090E0F8940C946512FB01DC0102C001908F
:102210000D9241505040D8F708950F931F93CF93DC
:10222000DF938230910510F482E090E0E091890222
:10223000F0918A0220E030E0A0E0B0E0309719F1A0
:10224000408151810281138148175907C8F08417D2
:10225000950769F4109731F012960C931297139624
:102260001C9327C00093890210938A0222C0211573
:10227000310519F04217530718F49A01BD01EF0117
:10228000DF01F801DBCF21153105F9F0281B390BEF
:102290002430310580F48A819B816115710521F01C
:1022A000FB019383828304C090938A028093890206
:1022B000FE01329644C0FE01E20FF31F8193919319
:1022C00022503109398328833AC020918702309106
:1022D0008802232B41F42091220130912301309375
:1022E000880220938702209120013091210121153D
:1022F000310541F42DB73EB740912401509125019D
:10230000241B350BE0918702F0918802E217F30756
:10231000A0F42E1B3F0B2817390778F0AC014E5F55
:102320005F4F2417350748F04E0F5F1F5093880208
:10233000409387028193919302C0E0E0F0E0CF01E7
:10234000DF91CF911F910F910895CF93DF93009765
:1023500009F481C0FC01329713821282A091890294
:10236000B0918A02109781F420813181820F931FEE
:1023700020918702309188022817390751F5F09390
:102380008802E093870267C0ED0120E030E0CE17BD
:10239000DF0740F44A815B819E0141155105F1F050
:1023A000EA01F5CFD383C28340815181840F951F09
:1023B000C817D90759F488819981840F951F02960F
:1023C000918380838A819B81938382832115310548
:1023D00029F4F0938A02E09389023DC0E901FB836E
:1023E000EA8349915991C40FD51FEC17FD0761F499
:1023F00080819181840F951F0296E90199838883DA
:10240000828193819B838A83E0E0F0E012968D9134
:102410009C911397009719F0FD01DC01F7CF8D9186
:102420009C9111979D012E5F3F4F820F931F20912A
:102430008702309188022817390769F4309729F408
:1024400010928A021092890202C013821282B09303
:102450008802A0938702DF91CF9108952F923F9237
:102460004F925F926F927F928F929F92AF92BF92A4
:10247000CF92DF92EF92FF920F931F93CF93DF9350
:10248000CDB7DEB7CA1BDB0B0FB6F894DEBF0FBEAD
:10249000CDBF09942A88398848885F846E847D84FA
:1024A0008C849B84AA84B984C884DF80EE80FD80FC
:1024B0000C811B81AA81B981CE0FD11D0FB6F89472
:0E24C000DEBF0FBECDBFED010895F894FFCF33
:1024CE000F00F401D00704000401C000C000C000DA
:1024DE00C000C000FFFFFFFF00E100000000000091
:1024EE0000008B0280009C01B501CF01EA010702BA
:1024FE002602470269028E02B502DE020A0300C1FD
:10250E00808100000000000000DF089F0D0009F52B
:10251E00084609040922090000000098028D02AD48
:10252E00027F02860283028002000000003E031C2E
:0A253E0003AD02AC02A9024B03003A
:00000001FF
